:020000040800F2
:1000000000000220BD8F0008018B0008038B000850
:10001000058B0008078B0008098B00080000000012
:100020000000000000000000000000000B8B000832
:100030000D8B0008000000000F8B0008118B0008DA
:100040000D9000080D9000080D9000080D9000081C
:100050000D9000080D9000080D9000080D9000080C
:100060000D9000080D9000080D9000080D900008FC
:100070000D9000080D9000080D9000080D900008EC
:100080000D9000080D9000080D9000080000000081
:100090000000000000000000000000000D900008BB
:1000A0000D9000080D9000081D8B00080D900008B1
:1000B0002D8B00080D9000080D9000080D90000891
:1000C0000D9000080D9000080D9000080D9000089C
:1000D0000D9000083D8B00080D9000080000000006
:1000E0000D9000080D9000080D9000080000000021
:1000F0000000000000000000000000000D9000085B
:10010000000000000D9000080D9000080D90000800
:1001100000000000000000000000000000000000DF
:100120000D9000080D9000080D9000080D9000083B
:100130000D9000080000000000000000000000001A
:100140000000000000000000000000000D9000080A
:100150000D9000080D9000080D9000080D9000080B
:100160000D9000080D900008000000000000000045
:10017000000000000000000000000000000000007F
:10018000000000000D9000080000000000000000CA
:080190000D9000080D9000081D
:1001C00010B5054C237833B9044B13B10448AFF391
:1001D00000800123237010BDEC0900200000000006
:1001E000CCF3000808B5034B1BB103490348AFF338
:1001F000008008BD00000000F0090020CCF30008DA
:1002000081F0004102E000BF83F0004330B54FEAC7
:1002100041044FEA430594EA050F08BF90EA020F34
:100220001FBF54EA000C55EA020C7FEA645C7FEAC7
:10023000655C00F0E2804FEA5454D4EB5555B8BFEA
:100240006D420CDD2C4480EA020281EA030382EA5B
:10025000000083EA010180EA020281EA0303362DED
:1002600088BF30BD11F0004F4FEA01314FF4801CC0
:100270004CEA113102D0404261EB410113F0004FD2
:100280004FEA03334CEA133302D0524263EB430389
:1002900094EA050F00F0A780A4F10104D5F1200E27
:1002A0000DDB02FA0EFC22FA05F2801841F1000182
:1002B00003FA0EF2801843FA05F359410EE0A5F156
:1002C00020050EF1200E012A03FA0EFC28BF4CF087
:1002D000020C43FA05F3C01851EBE37101F000453D
:1002E00007D54FF0000EDCF1000C7EEB00006EEB4A
:1002F0000101B1F5801F1BD3B1F5001F0CD34908D4
:100300005FEA30004FEA3C0C04F101044FEA44522A
:1003100012F5800F80F09A80BCF1004F08BF5FEAB1
:10032000500C50F1000041EB045141EA050130BD91
:100330005FEA4C0C404141EB010111F4801FA4F134
:100340000104E9D191F0000F04BF01460020B1FA89
:1003500081F308BF2033A3F10B03B3F120020CDAC1
:100360000C3208DD02F1140CC2F10C0201FA0CF09F
:1003700021FA02F10CE002F11402D8BFC2F1200C04
:1003800001FA02F120FA0CFCDCBF41EA0C019040BA
:10039000E41AA2BF01EB0451294330BD6FEA040403
:1003A0001F3C1CDA0C340EDC04F11404C4F12002EE
:1003B00020FA04F001FA02F340EA030021FA04F300
:1003C00045EA030130BDC4F10C04C4F1200220FA57
:1003D00002F001FA04F340EA0300294630BD21FA95
:1003E00004F0294630BD94F0000F83F4801306BF5B
:1003F00081F480110134013D4EE77FEA645C18BF4F
:100400007FEA655C29D094EA050F08BF90EA020FE5
:1004100005D054EA000C04BF1946104630BD91EADD
:10042000030F1EBF0021002030BD5FEA545C05D1E0
:100430004000494128BF41F0004130BD14F580041F
:100440003CBF01F5801130BD01F0004545F0FE4193
:1004500041F470014FF0000030BD7FEA645C1ABFC8
:10046000194610467FEA655C1CBF0B46024650EAFF
:10047000013406BF52EA033591EA030F41F400212B
:1004800030BD00BF90F0000F04BF0021704730B5B1
:100490004FF4806404F132044FF000054FF0000186
:1004A00050E700BF90F0000F04BF0021704730B547
:1004B0004FF4806404F1320410F0004548BF40421C
:1004C0004FF000013EE700BF42004FEAE2014FEA71
:1004D00031014FEA02701FBF12F07F4393F07F4F4C
:1004E00081F06051704732F07F4208BF704793F04F
:1004F0007F4F04BF41F40021704730B54FF4607462
:1005000001F0004521F000411CE700BF50EA010264
:1005100008BF704730B54FF000050AE050EA01020D
:1005200008BF704730B511F0004502D5404261EB7D
:1005300041014FF4806404F132045FEA915C3FF4BE
:10054000D8AE4FF003025FEADC0C18BF03325FEA5B
:10055000DC0C18BF033202EBDC02C2F1200300FA0C
:1005600003FC20FA02F001FA03FE40EA0E0021FA31
:1005700002F11444BDE600BF7BB972B90029BEBFC9
:1005800000204FF0004106E008BF00281CBF6FF0BC
:1005900000414FF0FF3000F0BDB9ADF1080C6DE93E
:1005A00004CE002909DB002B1ADB00F04DF8DDF842
:1005B00004E0DDE9022304B07047404261EB4101F1
:1005C000002B1BDB00F040F8DDF804E0DDE902233E
:1005D00004B0404261EB4101524263EB4303704778
:1005E000524263EB430300F02FF8DDF804E0DDE94D
:1005F000022304B0404261EB41017047524263EB79
:10060000430300F021F8DDF804E0DDE9022304B043
:10061000524263EB4303704753B94AB9002908BFFC
:1006200000281CBF4FF0FF314FF0FF3000F072B9CF
:10063000ADF1080C6DE904CE00F006F8DDF804E039
:10064000DDE9022304B070472DE9F047089E044617
:100650008846002B4BD18A42154667D9B2FA82F2FE
:100660004AB1C2F1200701FA02F320FA07F79540D8
:1006700047EA030894404FEA154E230CB8FBFEF7F7
:100680001FFA85FC0EFB178843EA084307FB0CF1B1
:10069000994209D9EB1807F1FF3080F01B8199428C
:1006A00040F21881023F2B445B1AA4B2B3FBFEF068
:1006B0000EFB103344EA034400FB0CFCA44509D9AB
:1006C0002C1900F1FF3380F00781A44540F204812A
:1006D00002382C4440EA0740A4EB0C0400271EB16A
:1006E000D4400023C6E900433946BDE8F0878B4279
:1006F00009D9002E00F0EB800027C6E9000138463A
:100700003946BDE8F087B3FA83F7002F47D18B4213
:1007100002D3824200F2FA80841A61EB03030120C3
:100720009846002EE0D0C6E90048DDE702B9FFDEBA
:10073000B2FA82F2002A40F08F80491B4FEA154E30
:100740001FFA85F80127B1FBFEFC230C0EFB1C11E0
:1007500043EA014308FB0CF1994207D9EB180CF16D
:10076000FF3002D2994200F2CD808446591AA3B2DA
:10077000B1FBFEF00EFB101443EA044408FB00F842
:10078000A04507D92C1900F1FF3302D2A04500F291
:10079000B6801846A4EB080440EA0C409FE7C7F176
:1007A000200CBB4022FA0CFE4EEA030E01FA07F4BD
:1007B00020FA0CF521FA0CF34FEA1E482543B3FB4F
:1007C000F8F92C0C08FB19331FFA8EFA44EA03439C
:1007D00009FB0AF49C4202FA07F200FA07F10BD96E
:1007E0001EEB030309F1FF3080F087809C4240F24A
:1007F0008480A9F1020973441B1BADB2B3FBF8F06E
:1008000008FB103345EA034400FB0AFAA24508D965
:100810001EEB040400F1FF336BD2A24569D9023804
:10082000744440EA0940A0FB0289A4EB0A044C4549
:10083000C2464B4654D351D0002E69D0B1EB0A05C5
:1008400064EB030404FA0CFCFD40FC404CEA050593
:10085000C6E90054002747E7C2F1200320FA03F756
:10086000954001FA02F021FA03F34FEA154E38439E
:10087000010CB3FBFEF71FFA85F80EFB173341EAB4
:10088000034107FB08F38B4204FA02F407D9691805
:1008900007F1FF3C2FD28B422DD9023F2944CB1ABE
:1008A00081B2B3FBFEF00EFB103341EA034100FBC3
:1008B00008F38B4207D9691800F1FF3C17D28B422D
:1008C00015D902382944C91A40EA07473BE7374699
:1008D000304609E70746E7E61846FBE64145ABD256
:1008E000B8EB020A69EB0E0201381346A4E7604632
:1008F000E9E7184695E76746D1E781467CE7023885
:100900002C4447E7ACF1020C2B442FE7384608E7AC
:100910003746E9E6704700BF844641EA000313F01A
:1009200003036DD1403A41D351F8043B40F8043BF6
:1009300051F8043B40F8043B51F8043B40F8043BB9
:1009400051F8043B40F8043B51F8043B40F8043BA9
:1009500051F8043B40F8043B51F8043B40F8043B99
:1009600051F8043B40F8043B51F8043B40F8043B89
:1009700051F8043B40F8043B51F8043B40F8043B79
:1009800051F8043B40F8043B51F8043B40F8043B69
:1009900051F8043B40F8043B51F8043B40F8043B59
:1009A00051F8043B40F8043B403ABDD2303211D3F9
:1009B00051F8043B40F8043B51F8043B40F8043B39
:1009C00051F8043B40F8043B51F8043B40F8043B29
:1009D000103AEDD20C3205D351F8043B40F8043BF9
:1009E000043AF9D2043208D0D2071CBF11F8013BF7
:1009F00000F8013B01D30B8803806046704700BFBD
:100A0000082A13D38B078DD010F003038AD0C3F1CB
:100A10000403D21ADB071CBF11F8013B00F8013BAD
:100A200080D331F8023B20F8023B7BE7043AD9D36C
:100A3000013A11F8013B00F8013BF9D20B78037041
:100A40004B7843708B7883706046704700000000DD
:100A50000000000000000000000000000000000096
:100A60000000000000000000000000000000000086
:100A70000000000000000000000000000000000076
:100A800090F800F06DE9024520F007016FF0000CCE
:100A900010F0070491F820F040F049804FF0000476
:100AA0006FF00700D1E9002391F840F000F1080051
:100AB00082FA4CF2A4FA8CF283FA4CF3A2FA8CF389
:100AC0004BBBD1E9022382FA4CF200F10800A4FAF0
:100AD0008CF283FA4CF3A2FA8CF3E3B9D1E9042344
:100AE00082FA4CF200F10800A4FA8CF283FA4CF37B
:100AF000A2FA8CF37BB9D1E9062301F1200182FA35
:100B00004CF200F10800A4FA8CF283FA4CF3A2FA3A
:100B10008CF3002BC6D0002A04BF04301A4612BA48
:100B2000B2FA82F2FDE8024500EBD2007047D1E94B
:100B3000002304F00305C4F100004FEAC50514F0DA
:100B4000040F91F840F00CFA05F562EA05021CBFAB
:100B500063EA050362464FF00004A9E700000000C5
:100B600001F0FF01102A2BDB10F0070F08D010F85E
:100B7000013B013A8B422DD010F0070F42B3F6D162
:100B8000F0B441EA012141EA014122F007047FF07B
:100B900000070023F0E80256083C85EA010586EAD2
:100BA000010685FA47F5A3FA87F586FA47F6A5FA0E
:100BB00087F68EB9EED1F0BC01F0FF0102F007021A
:100BC00032B110F8013B013A83EA010313B1F8D1C5
:100BD0000020704701387047002D06BF35460338A6
:100BE000073815F0010F07D1013015F4807F02BFDF
:100BF000013015F4C03F0130F0BC0138704700BF30
:100C000070B54FF0FF0C4CF4E06C1CEA11541DBFA2
:100C10001CEA135594EA0C0F95EA0C0F00F0DEF86D
:100C20002C4481EA030621EA4C5123EA4C5350EA52
:100C3000013518BF52EA033541F4801143F48013A3
:100C400038D0A0FB02CE4FF00005E1FB02E506F034
:100C50000042E0FB03E54FF00006E1FB03569CF089
:100C6000000F18BF4EF0010EA4F1FF04B6F5007F8F
:100C700064F5407404D25FEA4E0E6D4146EB060601
:100C800042EAC62141EA55514FEAC52040EA5E508A
:100C90004FEACE2EB4F1FD0C88BFBCF5E06F1ED834
:100CA000BEF1004F08BF5FEA500E50F1000041EB6B
:100CB000045170BD06F0004646EA010140EA020018
:100CC00081EA0301B4EB5C04C2BFD4EB0C0541EA3A
:100CD000045170BD41F480114FF0000E013C00F34F
:100CE000AB8014F1360FDEBF002001F0004170BD73
:100CF000C4F10004203C35DA0C341BDC04F114048C
:100D0000C4F1200500FA05F320FA04F001FA05F217
:100D100040EA020001F0004221F0004110EBD370E4
:100D200021FA04F642EB06015EEA430E08BF20EA10
:100D3000D37070BDC4F10C04C4F1200500FA04F3B3
:100D400020FA05F001FA04F240EA020001F0004145
:100D500010EBD37041F100015EEA430E08BF20EAB8
:100D6000D37070BDC4F1200500FA05F24EEA020E00
:100D700020FA04F301FA05F243EA020321FA04F02F
:100D800001F0004121FA04F220EA020000EBD370E6
:100D90005EEA430E08BF20EAD37070BD94F0000FE6
:100DA0000FD101F00046400041EB010111F4801F1A
:100DB00008BF013CF7D041EA060195F0000F18BFCB
:100DC000704703F00046520043EB030313F4801F07
:100DD00008BF013DF7D043EA0603704794EA0C0FC1
:100DE0000CEA135518BF95EA0C0F0CD050EA4106D7
:100DF00018BF52EA4306D1D181EA030101F0004154
:100E00004FF0000070BD50EA410606BF104619467B
:100E100052EA430619D094EA0C0F02D150EA013687
:100E200013D195EA0C0F05D152EA03361CBF1046C8
:100E300019460AD181EA030101F0004141F0FE4167
:100E400041F470014FF0000070BD41F0FE4141F4EB
:100E5000780170BD70B54FF0FF0C4CF4E06C1CEAEB
:100E600011541DBF1CEA135594EA0C0F95EA0C0FA0
:100E700000F0A7F8A4EB050481EA030E52EA03355B
:100E80004FEA013100F088804FEA03334FF080557C
:100E900045EA131343EA12634FEA022245EA1115A9
:100EA00045EA10654FEA00260EF000419D4208BF5A
:100EB000964244F1FD0404F5407402D25B084FEA07
:100EC0003202B61A65EB03055B084FEA32024FF4B3
:100ED00080104FF4002CB6EB020E75EB030E22BF10
:100EE000B61A754640EA0C005B084FEA3202B6EBD0
:100EF000020E75EB030E22BFB61A754640EA5C007F
:100F00005B084FEA3202B6EB020E75EB030E22BF0E
:100F1000B61A754640EA9C005B084FEA3202B6EB0F
:100F2000020E75EB030E22BFB61A754640EADC00CE
:100F300055EA060E18D04FEA051545EA16754FEA30
:100F400006164FEAC30343EA52734FEAC2025FEA4E
:100F50001C1CC0D111F4801F0BD141EA00014FF0DD
:100F600000004FF0004CB6E711F4801F04BF0143AE
:100F70000020B4F1FD0C88BFBCF5E06F3FF6AFAECA
:100F8000B5EB030C04BFB6EB020C5FEA500C50F15A
:100F9000000041EB045170BD0EF0004E4EEA1131DD
:100FA00014EB5C04C2BFD4EB0C0541EA045170BDE4
:100FB00041F480114FF0000E013C90E645EA060E28
:100FC0008DE60CEA135594EA0C0F08BF95EA0C0F56
:100FD0003FF43BAF94EA0C0F0AD150EA01347FF49E
:100FE00034AF95EA0C0F7FF425AF104619462CE775
:100FF00095EA0C0F06D152EA03353FF4FDAE1046D8
:10100000194622E750EA410618BF52EA43067FF428
:10101000C5AE50EA41047FF40DAF52EA43057FF4B8
:10102000EBAE12E74FF0FF3C06E000BF4FF0010CC3
:1010300002E000BF4FF0010C4DF804CD4FEA410C27
:101040007FEA6C5C4FEA430C18BF7FEA6C5C1BD0F4
:1010500001B050EA410C0CBF52EA430C91EA030F75
:1010600002BF90EA020F0020704710F1000F91EAD2
:10107000030F58BF994208BF90422CBFD8176FEAA0
:10108000E37040F0010070474FEA410C7FEA6C5C6E
:1010900002D150EA013C07D14FEA430C7FEA6C5C75
:1010A000D6D152EA033CD3D05DF8040B704700BFA1
:1010B0008446104662468C461946634600E000BFEF
:1010C00001B5FFF7B7FF002848BF10F1000F01BDC1
:1010D0004DF808EDFFF7F4FF0CBF012000205DF88C
:1010E00008FB00BF4DF808EDFFF7EAFF34BF012011
:1010F00000205DF808FB00BF4DF808EDFFF7E0FFAA
:1011000094BF012000205DF808FB00BF4DF808EDFA
:10111000FFF7CEFF94BF012000205DF808FB00BF61
:101120004DF808EDFFF7C4FF34BF012000205DF843
:1011300008FB00BF4FEA410C7FEA6C5C02D150EA29
:10114000013C0AD14FEA430C7FEA6C5C02D152EABF
:10115000033C02D14FF0000070474FF00100704790
:101160004FEA410212F5001215D211D56FF47873CF
:10117000B3EB625212D94FEAC12343F0004343EA72
:10118000505311F0004F23FA02F018BF404270474D
:101190004FF00000704750EA013005D111F00040D7
:1011A00008BF6FF0004070474FF00000704700BF6D
:1011B00010B504460E4B18784FF47A73B3FBF0F376
:1011C0000C4A1068B0FBF3F000F0D0F868B90F2CAF
:1011D00001D901200AE0002221464FF0FF3000F043
:1011E00069F8034B5C60002000E0012010BD00BFE7
:1011F000000000201400002008B50B4B1A6842F4D0
:1012000000721A601A6842F480621A601A6842F426
:1012100080721A60032000F02FF80020FFF7C8FF4B
:1012200007F024FC002008BD003C0240034A11687E
:10123000034B1B780B441360704700BF600D002008
:1012400000000020014B1868704700BF600D0020AF
:1012500038B50446FFF7F6FF0546B4F1FF3F02D06C
:10126000044B1B781C44FFF7EDFF401BA042FAD350
:1012700038BD00BF0000002010B50446C31E042B7B
:101280000FD80A4AD36823F4E0631B041B0C240222
:1012900004F4E064234343F0BF6343F40033D360BA
:1012A00010BDA221024807F06BF9EAE700ED00E06B
:1012B00060F8000870B505460C4616460F2A25D87A
:1012C0000F2C28D81B4BDB68C3F30223C3F10702A2
:1012D000042A28BF0422191D062921D9033B4FF0F7
:1012E000FF3101FA02F224EA02049C4001FA03F3FE
:1012F00026EA03063443002D14DB2401E4B205F191
:10130000604505F5614585F8004370BDBA210A487E
:1013100007F036F9D4E7BB21074807F031F9D1E7E8
:101320000023DCE705F00F052401E4B2034B5C5514
:10133000EBE700BF00ED00E060F8000814ED00E00E
:1013400010B5041E08DB04F01F026409012393405A
:10135000044A42F8243010BDCE21034807F010F9AA
:10136000F1E700BF00E100E060F800080138B0F1EB
:10137000807F0AD2064B5860064AF02182F823107B
:101380000020986007221A6070470120704700BF54
:1013900010E000E000ED00E010B50446042800D0A5
:1013A00038B9042C0BD0094A136823F004031360E6
:1013B00010BD40F2D911064807F0E2F8F1E7034A00
:1013C000136843F004031360F2E700BF10E000E08D
:1013D00060F80008704708B5FFF7FCFF08BD90F8FB
:1013E0003530DBB2022B03D08023436501207047E8
:1013F000052380F835300268136823F00103136079
:10140000002070472DE9F04782B080460E46A44B7D
:10141000984217D003F58063984213D003F5806398
:1014200098420FD003F5806398420BD003F5806398
:10143000984207D003F54063984203D0C3219948EE
:1014400007F09EF833689AB212B11B0C1B041BB153
:10145000C421944807F094F87368012B1ED9112B0E
:101460001CD0022B1AD0122B18D08F4A934215D0C1
:1014700002F58012934211D002F5801293420DD0F2
:10148000A2F5F812934209D002F58012934205D0DA
:1014900002F58012934201D0032B04D1B368022BD2
:1014A00006D8002445E0C5217E4807F069F8F5E735
:1014B000C6217C4807F064F8F3E7EA21794807F091
:1014C0005FF890E0042300E000238B4003430232E6
:1014D000764941F82230764B1A68FB4303EA020151
:1014E000706810F4803F01D047EA0201704A116031
:1014F000526803EA0201706810F4003F01D047EA25
:1015000002016B4A5160926803EA0201706810F4AC
:10151000801F01D047EA0201654A9160D2681340FA
:10152000716811F4001F01D047EA0203604AD360DA
:1015300001340F2C00F2B0800125A54037682F4000
:10154000BD42F5D17368022B01D0122B2BD1336928
:10155000CBB1092B17D0012B15D0022B13D0042BA4
:1015600011D0052B0FD0062B0DD0072B0BD0082B3D
:1015700009D00A2B07D00C2B05D00F2B03D0D72175
:10158000484806F0FDFFE208083258F8220004F04F
:10159000070399000F238B4020EA030033698B4037
:1015A000034348F82230D8F800204FEA440A4FF0AD
:1015B000030909FA0AF96FEA090909EA02027368DC
:1015C00003F0030303FA0AF31343C8F80030736807
:1015D0005A1E012A03D9112B01D0122B18D1F368FE
:1015E000032B3FF66AAFD8F8082009EA0202F36835
:1015F00003FA0AF31343C8F80830D8F8042022EAA3
:1016000005027368C3F30015A5401543C8F80450DC
:10161000D8F80C3009EA0309B36803FA0AF343EA7D
:101620000903C8F80C30736813F0805F80D0002382
:101630000193204B5A6C42F480425A645B6C03F471
:1016400080430193019BA208911C184B53F8210081
:1016500004F0030399000F238B4020EA0300104B92
:1016600098453FF431AF03F5806398450ED003F5FC
:10167000806398450CD003F5806398450AD003F544
:10168000806398453FF41EAF07231EE701231CE744
:1016900002231AE7032318E702B0BDE8F08700BF72
:1016A000000002409CF800080000111000380140C2
:1016B000003C01400038024038B505460C4621B1D7
:1016C0002B691C4207D1002038BD4FF4C771034875
:1016D00006F056FFF4E70120F6E700BF9CF800088B
:1016E00070B5064615460C4629B1012D09D875B9C5
:1016F0002404B46170BD40F2AF11064806F040FF0B
:10170000F3E74FF4D871034806F03AFFEFE7B4610E
:10171000F0E700BF9CF8000803685A6912F4806F74
:101720000DD06FF480625A610423036400230363C5
:10173000202280F83D2080F83C30012070470020B6
:101740007047F8B506460C4617461D461EE02DB1FB
:10175000FFF778FD069BC01AA84217D90023336310
:10176000202286F83D2086F83E3086F83C30032063
:101770001AE033685B6924EA03039BB2B3FA83F38C
:101780005B099F420FD1B5F1FF3FE0D1C4F307439E
:10179000012BEED033689B6924EA03039BB2B3FAB2
:1017A00083F35B09EDE70020F8BDF8B504460D466C
:1017B00016461F4632E01A6842F400721A60236827
:1017C0006FF480625A610423236400232363202280
:1017D00084F83D2084F83C3001202DE026B1FFF74D
:1017E00031FDC01BB04219D900232363202284F8A5
:1017F0003D2084F83C3003201EE023685B6925EA25
:1018000003039BB2003318BF0123A3B123685A69B5
:1018100012F4806FCFD1B6F1FF3FDFD1C5F307439C
:10182000012BEAD023689B6925EA03039BB20033AE
:1018300018BF0123E9E70020F8BD0000F0B583B030
:1018400004460D4616461F46C36A042B0DD0012BD5
:101850000BD013F5803F08D0036B122B0AD102681E
:10186000136843F48073136004E02268136843F440
:10187000807313600097334600224FF00111204619
:10188000FFF75FFF58BB2369B3F5804F10D1236882
:1018900005F0FE051D613B46324615492046FFF71F
:1018A00084FF0346E0B1236C042B1ED1012317E013
:1018B000EB11226803F0060343F0F00313613B468B
:1018C00032460C492046FFF770FF20B1236C042BF1
:1018D00009D1012304E02368EDB21D61DBE7032396
:1018E000184603B0F0BD0323FAE70323F8E700BF6F
:1018F00002000100080001002DE9F04184B0044617
:101900000D4616461F46C26A01680B6843F48063A1
:101910000B60042A0DD0012A0BD012F5803F08D0AD
:10192000036B112B0AD10268136843F480731360B0
:1019300004E02268136843F4807313600097334611
:1019400000224FF001112046FFF7FBFE002852D184
:101950002369B3F5804F12D1236845F00105EDB23C
:101960001D613B4632462A492046FFF71EFF0346CB
:10197000002841D0236C042B48D101233CE04FEADE
:10198000E51808F00608236848F0F0021A613B46A3
:10199000324620492046FFF708FF20B1236C042B74
:1019A0002ED1012328E02368EDB21D613B4632466B
:1019B00017492046FFF7F9FE20B1236C042B21D1F3
:1019C000012319E000220392236859690391996960
:1019D00003910399196841F48071196000973346A7
:1019E0004FF001112046FFF7ACFE68B9226848F0BD
:1019F000F1031361B5E70323184604B0BDE8F08195
:101A00000323F9E70323F7E70323F5E70323F3E7CA
:101A1000020001000800010070B504460D4616469C
:101A200023685B6913F0800F19D12046FFF774FE1D
:101A3000B8B9B5F1FF3FF3D025B1FFF703FC801B28
:101A4000A842EDD9236C43F02003236400232363D1
:101A5000202284F83D2084F83C30032000E0002060
:101A600070BD0120FCE700002DE9F04184B0044680
:101A70000E46174698460B9D0268136843F4807320
:101A8000136000950A9B00224FF00111FFF759FEE9
:101A9000002847D1236806F0FE061E612B460A9AED
:101AA00026492046FFF781FE20B1236C042B3ED14E
:101AB000012338E00023039323685A6903929B694A
:101AC0000393039B2A460A992046FFF7A5FF034686
:101AD00048B1236C042B2CD12268136843F40073A3
:101AE000136001231FE0B8F1010F13D023683A0AF5
:101AF0001A612A460A992046FFF78EFF034668B10D
:101B0000236C042B17D12268136843F4007313600D
:101B1000012308E02268FFB2176104E02268FFB2E7
:101B2000176100E00323184604B0BDE8F0810323E9
:101B3000F9E70323F7E70323F5E700BF02000100FD
:101B40002DE9F04184B004460E46174698460B9D99
:101B50000268136843F4806313600268136843F4F7
:101B60008073136000950A9B00224FF00111FFF76C
:101B7000E8FD002874D1F6B2236806F0FE021A616F
:101B80002B460A9A3F492046FFF70FFE20B1236CEF
:101B9000042B6AD1012364E00023039323685A696C
:101BA00003929B690393039B2A460A992046FFF7F9
:101BB00033FF48B1236C042B59D12268136843F4D6
:101BC0000073136001234CE0B8F1010F12D12368B8
:101BD000FFB21F612A460A992046FFF71DFF00B396
:101BE000236C042B47D12268136843F400731360FD
:101BF000012336E023683A0A1A612A460A992046E8
:101C0000FFF70AFF48B1236C042B32D12268136816
:101C100043F400731360012323E02368FFB21F61C4
:101C2000D8E72268136843F48073136000950A9B19
:101C300000224FF001112046FFF783FDE8B9236829
:101C400046F001061E612B460A9A0E492046FFF710
:101C5000ACFD034628B1236C042B10D1012300E016
:101C60000323184604B0BDE8F0810323F9E70323FA
:101C7000F7E70323F5E70323F3E70323F1E7032360
:101C8000EFE700BF0200010070B504460D4616469E
:101C900023685B6913F0040F19D12046FFF73CFD60
:101CA000B8B9B5F1FF3FF3D025B1FFF7CBFA801BF0
:101CB000A842EDD9236C43F020032364002323635F
:101CC000202284F83D2084F83C30032000E00020EE
:101CD00070BD0120FCE770B505460C4616462B6822
:101CE0005A6912F0400F22D15A6912F0100F11D127
:101CF00024B1FFF7A7FA801BA042F0D92B6C43F068
:101D000020032B64202385F83D30002385F83C30E8
:101D1000032070BD6FF010025A6100232B642B6307
:101D2000202285F83D2085F83C300120F1E7002095
:101D3000EFE70000002800F0EB8010B504460368D0
:101D4000744A93420CD002F58062934208D002F5A7
:101D50008062934204D04FF4B7716F4806F010FCD4
:101D60006368013B6D4A934267D8A36813B1B3F52A
:101D7000804F68D1E36823F47F7323F00303002BC3
:101D800067D12369B3F5804F02D0B3F5404F66D1D8
:101D90006369012B69D8A36933F0FE036BD1E36952
:101DA0000BB1402B6DD1236A0BB1802B6FD194F80E
:101DB0003D30002B71D0242384F83D302268136815
:101DC00023F00103136001F0C5F9554BA3FB002379
:101DD0009B0C226853606168524A914263D8013378
:101DE0002268136263684F4A934266D85B00B0FB77
:101DF000F3F0C0F30B03032B00D804202368D86151
:101E0000E369216A22680B4313602369E168226851
:101E10000B4393606369A16922680B43D360226816
:101E2000136843F00103136000202064202384F82A
:101E30003D30206384F83E0010BD40F26F113648FB
:101E400006F09EFB91E74FF4B871334806F098FB1B
:101E500090E740F27111304806F092FB91E74FF4A1
:101E6000B9712D4806F08CFB92E740F273112A48B5
:101E700006F086FB8FE74FF4BA71274806F080FB27
:101E80008DE740F27511244806F07AFB8BE74FF49A
:101E9000BB71214806F074FB89E784F83C3020468A
:101EA00005F00AFD87E74FF4967202FB03F31E4A22
:101EB000A2FB03239B09013392E7A16889B903EBD5
:101EC0004302B0FBF2F2C2F30B02B2FA82F2520901
:101ED000E2B991B903EB4303B0FBF3F040F40040E7
:101EE0008CE703EB830202EB8202B0FBF2F2C2F357
:101EF0000B02B2FA82F25209EAE703EB830303EB27
:101F00008303B0FBF3F040F4404077E7012075E72E
:101F10000120704700540040D8F800087F1A0600DE
:101F200083DE1B43A0860100D34D62102DE9F041F2
:101F300084B004460E4690461F46FFF783F994F896
:101F40003D30DBB2202B04D00226304604B0BDE881
:101F5000F081054600901923012254492046FFF7DD
:101F6000F0FB002840F0998094F83C30012B00F001
:101F70009680012384F83C3023681A6812F0010F20
:101F800003D11A6842F001021A602268136823F430
:101F900000631360212384F83D30102384F83E3021
:101FA00000232364C4F824806785A3F58033E362AB
:101FB000638D23852B460A9A31462046FFF73EFC67
:101FC000064660B1236C042B04D1002384F83C3016
:101FD0000126BAE7002384F83C300326B5E7002346
:101FE000039323685A6903929B690393039B10E050
:101FF000236C042B55D12268136843F400731360DB
:102000000126A2E72A460A992046FFF73DFE00284E
:102010002BD1238D002B32D02A460A992046FFF778
:10202000FBFC0028E4D1636A5A1C626222681B78B8
:102030001361638D013B9BB26385238D013B9BB292
:1020400023852268516911F0040FDBD0002BD9D011
:10205000636A591C61621B781361638D013B9BB2FB
:102060006385238D013B2385CCE7236C042B1AD198
:102070002268136843F400731360012665E7226841
:10208000136843F400731360202384F83D30002369
:1020900084F83E3084F83C3057E7022655E70226A4
:1020A00053E7032651E703264FE700BF0200100065
:1020B0002DE9F04186B004460E4690461F46FFF7D4
:1020C000C1F894F83D30DBB2202B04D00226304614
:1020D00006B0BDE8F08105460090192301228C4925
:1020E0002046FFF72EFB002840F04B8194F83C304F
:1020F000012B00F04881012384F83C3023681A68E2
:1021000012F0010F03D11A6842F001021A6022682E
:10211000136823F400631360222384F83D301023F6
:1021200084F83E3000232364C4F824806785A3F537
:102130008033E362638D23852B460C9A314620461B
:10214000FFF7DAFB064660B1236C042B04D10023B1
:1021500084F83C300126BAE7002384F83C3003269B
:10216000B5E7238D5BB9029323685A6902929A6995
:102170000292029A1A6842F400721A607AE0012B05
:102180000FD0022B1FD02268136843F480631360C2
:102190000023059323685A6905929B690593059B63
:1021A00068E02268136823F48063136000230393BC
:1021B00023685A6903929A690392039A1A6842F44F
:1021C00000721A6056E02268136823F4806313607B
:1021D0002268136843F400631360002304932368A8
:1021E0005A6904929B690493049B43E02A460C9924
:1021F0002046FFF770FD68B923681A69636A591CA5
:1022000061621A70238D013B2385638D013B9BB274
:1022100063852FE0236C202B01D0012657E703268E
:1022200055E700950C9B00223A492046FFF789FAB2
:10223000002840F0AA802268136843F400731360FA
:1022400023681A69636A591C61621A70238D013B05
:102250002385638D013B9BB2638523681A69636A9A
:10226000591C61621A70238D013B2385638D013BEC
:102270009BB26385238D002B7AD0032B4CD8012B86
:10228000B4D0022BCDD000950C9B002221492046D2
:10229000FFF757FA00287AD12268136823F4806385
:1022A000136023681A69636A591C61621A70238D6E
:1022B000013B2385638D013B9BB2638500950C9B9D
:1022C000002214492046FFF73CFA002861D1226819
:1022D000136843F40073136023681A69636A591C16
:1022E00061621A70238D013B2385638D013B9BB294
:1022F000638523681A69636A591C61621A70238DA9
:10230000013B2385638D013B9BB26385B2E700BF30
:1023100002001000040001002A460C992046FFF735
:10232000DAFCF0B923681A69636A591C61621A7091
:10233000238D013B2385638D013B9BB2638523681D
:102340005A6912F0040F95D01A69636A591C6162C8
:102350001A70238D013B2385638D013B9BB26385FE
:1023600088E7236C202B01D00126B0E60326AEE6D9
:10237000202384F83D30002384F83E3084F83C303C
:10238000A5E60226A3E60226A1E603269FE603268B
:102390009DE603269BE600BF2DE9F04182B004468E
:1023A0000F4690461E46FEF74DFF0546012E01D012
:1023B000102E09D194F83D30DBB2202B0AD0022335
:1023C000184602B0BDE8F08140F66B11544806F0A3
:1023D000D7F8EFE700951923012252492046FFF76D
:1023E000B0F9002840F0938094F83C30012B00F0C5
:1023F0009080012384F83C3023681A6812F0010FA2
:1024000003D11A6842F001021A602268136823F4AB
:1024100000631360212384F83D30402384F83E306C
:1024200000232364089B6362BDF8243063853E4B20
:10243000E362638D238501950A9B009333464246F0
:1024400039462046FFF710FBB0B1236C042B04D1B2
:10245000002384F83C300123B2E7002384F83C30A9
:102460000323ADE7236C042B55D12268136843F492
:10247000007313600123A3E7238D002B28D02A4685
:102480000A992046FFF7C8FA0028EBD1636A5A1C64
:10249000626222681B781361238D013B9BB2238506
:1024A000628D013A92B262852268516911F0040F7F
:1024B000E2D0002BE0D0636A591C61621B78136183
:1024C000238D013B2385638D013B9BB26385D3E75D
:1024D0002A460A992046FFF7D7FB034648B1236CEA
:1024E000042B1AD12268136843F40073136001238C
:1024F00066E721680A6842F400720A60202284F8C4
:102500003D20002284F83E2084F83C2058E7022336
:1025100056E7022354E7032352E7032350E700BFA3
:10252000D8F80008020010000000FFFF2DE9F0417C
:1025300086B004460F4690461E46FEF783FE0546CB
:10254000012E01D0102E09D194F83D30DBB2202BA2
:102550000AD00226304606B0BDE8F0814FF41F6174
:102560008E4806F00DF8EFE70095192301228C49FB
:102570002046FFF7E6F8002840F04D8194F83C3003
:10258000012B00F04A81012384F83C3023681A684B
:1025900012F0010F03D11A6842F001021A6022689A
:1025A000136823F400631360222384F83D30402332
:1025B00084F83E30002323640C9B6362BDF8343002
:1025C0006385784BE362638D238501950E9B0093B1
:1025D0003346424639462046FFF7B2FA064660B116
:1025E000236C042B04D1002384F83C300126B1E78E
:1025F000002384F83C300326ACE7238D5BB90293BB
:1026000023685A6902929A690292029A1A6842F4FD
:1026100000721A6075E0012B0AD0022B1AD0002339
:10262000059323685A6905929B690593059B68E0A9
:102630002268136823F480631360002303932368E4
:102640005A6903929A690392039A1A6842F40072D3
:102650001A6056E02268136823F4806313602268CE
:10266000136843F4006313600023049323685A69DA
:1026700004929B690493049B43E02A460E992046EA
:10268000FFF729FB68B923681A69636A591C6162FC
:102690001A70238D013B2385638D013B9BB26385BB
:1026A0002FE0236C202B01D0012653E7032651E7AE
:1026B00000950E9B00223C492046FFF742F8002877
:1026C00040F0AD802268136843F400731360236800
:1026D0001A69636A591C61621A70238D013B238554
:1026E000638D013B9BB2638523681A69636A591C39
:1026F00061621A70238D013B2385638D013B9BB280
:102700006385238D002B7DD0032B4FD8012BB4D0B4
:10271000022BCDD000950E9B002223492046FFF7C7
:1027200010F800287DD12268136823F480631360B9
:1027300023681A69636A591C61621A70238D013B10
:102740002385638D013B9BB2638500950E9B002220
:1027500015492046FEF7F5FF002864D1226813686A
:1027600043F40073136023681A69636A591C616239
:102770001A70238D013B2385638D013B9BB26385DA
:1027800023681A69636A591C61621A70238D013BC0
:102790002385638D013B9BB26385B2E7D8F80008BF
:1027A000020010000000FFFF040001002A460E99FD
:1027B0002046FFF790FAF0B923681A69636A591C3A
:1027C00061621A70238D013B2385638D013B9BB2AF
:1027D000638523685A6912F0040F92D01A69636AFC
:1027E000591C61621A70238D013B2385638D013B67
:1027F0009BB2638585E7236C202B01D00126A9E6D7
:102800000326A7E6202384F83D30002384F83E30D9
:1028100084F83C309EE602269CE602269AE60326D1
:1028200098E6032696E6032694E600BF2DE9F043DA
:1028300085B00446884691461D46FEF703FD94F890
:102840003D30DBB2202B04D00223184605B0BDE892
:10285000F083064600901923012256492046FEF7D0
:1028600070FF002840F09B8094F83C30012B00F072
:102870009880012384F83C3023681A6812F0010F15
:1028800003D11A6842F001021A602268136823F427
:1028900000631360242384F83D3000232364A3F5F0
:1028A0008033E362012735E0A02384F83D302268BD
:1028B0005369C3F340035269C2F3802294F83D1078
:1028C000C9B253B94AB9A02907D0002DECD0FEF700
:1028D000B9FC801BA842EAD9E6E7202384F83D3002
:1028E00023685A6912F0020F35D11A6842F4007257
:1028F0001A6023686FF480625A61009619230122DE
:102900002C492046FEF71DFF002850D17B1C4F4567
:102910003DD21F462268136843F48073136000960B
:102920002B4600224FF001112046FEF70AFF002837
:1029300039D1236808F0FE021A61FEF783FC0646CF
:1029400022685369C3F340035269C2F3802294F8AA
:102950003D10C9B2B5E71A6842F400721A6000234C
:10296000039323685A6903929B690393039B009620
:10297000192301220F492046FEF7E3FE0346A0B9C2
:10298000202284F83D20002284F83C205DE72023AB
:1029900084F83D30002384F83C30012355E70223BE
:1029A00053E7022351E703234FE703234DE70323B4
:1029B0004BE700BF02001000006C7047002800F0D9
:1029C0003B8270B582B0044603680F2B39D8236868
:1029D00013F0010F4DD063682BB1B3F5803F02D0E7
:1029E000B3F5A02F32D1A54B9B6803F00C03042B49
:1029F00036D0A24B9B6803F00C03082B2BD06368E6
:102A0000B3F5803F5FD0B3F5A02F62D09B4B1A681F
:102A100022F480321A601A6822F480221A606368F5
:102A2000002B60D0FEF70EFC0546944B1B6813F498
:102A3000003F1ED1FEF706FC401B6428F5D9032099
:102A4000FFE1F8218E4805F09BFDC0E7FD218C4891
:102A500005F096FDC7E7894B5B6813F4800FCED075
:102A6000864B1B6813F4003F03D06368002B00F013
:102A7000E581236813F0020F67D0E368012B41D88A
:102A800023691F2B44D87D4B9B6813F00C0F4AD051
:102A90007A4B9B6803F00C03082B3FD0E368002BB4
:102AA00077D0784B01221A60FEF7CCFB0546734BBA
:102AB0001B6813F0020F63D1FEF7C4FB401B022812
:102AC000F5D90320BDE16D4A136843F480331360E8
:102AD000A5E76A4B1A6842F480221A601A6842F429
:102AE00080321A609BE7FEF7ADFB0546634B1B681F
:102AF00013F4003FBDD0FEF7A5FB401B6428F5D9B9
:102B000003209EE140F22F115D4805F039FDB7E743
:102B10004FF498715A4805F033FDB4E7574B5B68A2
:102B200013F4800FBAD1554B1B6813F0020F04D079
:102B3000E368012B01D0012083E1504A136823F0A0
:102B4000F803216943EAC1031360236813F0080FF7
:102B500049D06369012B2ED8636993B34A4B012294
:102B60001A60FEF76FFB0546444B5B6F13F0020FD4
:102B700039D1FEF767FB401B0228F5D9032060E13D
:102B80003E4A136823F0F803216943EAC103136046
:102B9000DBE73C4B00221A60FEF754FB0546374B3F
:102BA0001B6813F0020FD0D0FEF74CFB401B02282D
:102BB000F5D9032045E14FF4B871314805F0E0FC48
:102BC000CAE7314B00221A60FEF73CFB05462B4B4F
:102BD0005B6F13F0020F06D0FEF734FB401B022898
:102BE000F5D903202DE1236813F0040F00F087804E
:102BF000A368012B01D9052B38D1204B1B6C13F096
:102C0000805F39D1002301931C4B1A6C42F0805233
:102C10001A641B6C03F080530193019B01251B4B2D
:102C20001B6813F4807F33D0A368012B44D0052B9D
:102C300048D0124B1A6F22F001021A671A6F22F065
:102C400004021A67A368002B46D0FEF7FBFA06467B
:102C50000A4B1B6F13F0020F4FD1FEF7F3FA801BE4
:102C600041F288339842F3D90320EAE04FF4CE7161
:102C7000034805F085FCC0E70025D0E70038024096
:102C800010F9000800004742800E474200700040E3
:102C90006E4A136843F480731360FEF7D3FA064656
:102CA0006A4B1B6813F4807FBED1FEF7CBFA801B02
:102CB0000228F5D90320C4E0654A136F43F00103ED
:102CC0001367BFE7624B1A6F42F004021A671A6F6C
:102CD00042F001021A67B5E7FEF7B4FA06465C4B0C
:102CE0001B6F13F0020F08D0FEF7ACFA801B41F205
:102CF00088339842F3D90320A3E0002D3AD1A36989
:102D0000022B3DD8A369002B00F09A80504A9268AC
:102D100002F00C02082A00F09680022B78D1E369B9
:102D200013B1B3F5800F31D1236A3F2B34D8636AD6
:102D3000C03BF02B36D8A36A022B05D0042B03D05E
:102D4000062B01D0082B33D1E36A023B0D2B35D87B
:102D5000404B00221A60FEF775FA05463C4B1B6893
:102D600013F0007F30D0FEF76DFA401B0228F5D932
:102D7000032066E0364A136C23F080531364BEE7E9
:102D800040F2DF11344805F0FBFBBBE74FF4F47170
:102D9000314805F0F5FBC7E740F2E9112E4805F090
:102DA000EFFBC4E74FF4F5712B4805F0E9FBC2E7F0
:102DB00040F2EB11284805F0E3FBC5E74FF4F6714C
:102DC000254805F0DDFBC3E7E369226A1343626A25
:102DD00043EA8213A26A5208013A43EA0243E26AD2
:102DE00043EA02631A4A53601A4B01221A60FEF743
:102DF00029FA0446164B1B6813F0007F06D1FEF734
:102E000021FA001B0228F5D903201AE0002018E05F
:102E1000104B00221A60FEF715FA04460C4B1B6893
:102E200013F0007F06D0FEF70DFA001B0228F5D93B
:102E3000032006E0002004E001207047012000E0AC
:102E4000002002B070BD0120FBE700BF0070004011
:102E5000003802406000474210F90008324B9B687E
:102E600003F00C03042B5CD0082B01D02F487047D3
:102E70002DE9F04B2C4B5A6802F03F025B6813F4CB
:102E8000800F2BD0284B5B68C3F388131E460027A6
:102E90005C010025E41A65EB0705A90141EA94618C
:102EA000A001001B61EB0501CB0043EA5073C40095
:102EB000A01943EB07014B0243EAD05344022046DA
:102EC00019460023FDF7A8FB174B5B68C3F30143CA
:102ED00001335B00B0FBF3F0BDE8F08B124B5B6895
:102EE000C3F388131E4600275C010025E41A65EB36
:102EF0000705A90141EA9461A001001B61EB0501EE
:102F0000CB0043EA5073C400A01943EB07018B02C6
:102F100043EA90538402204619460023FDF77CFBC8
:102F2000D2E70348704700BF003802400024F40095
:102F300000127A00002800F0F98070B504460D46B2
:102F40000368013B0E2B11D8072D15D8794B1B6850
:102F500003F00F03AB4215D2EBB2764A137013683D
:102F600003F00F03AB420DD0012070BD4FF414717C
:102F7000714805F005FBE7E740F251216E4805F086
:102F8000FFFAE3E7236813F0020F29D013F0040FD0
:102F900004D06A4A936843F4E0539360236813F0C3
:102FA000080F04D0654A936843F460439360A368B4
:102FB0007BB1802B0DD0902B0BD0A02B09D0B02B48
:102FC00007D0C02B05D0D02B03D0E02B01D0F02BA5
:102FD00033D15A4A936823F0F003A1680B439360FE
:102FE000236813F0010F42D06368032B2BD863686A
:102FF000012B2ED09A1E012A32D9504A126812F0A3
:10300000020F00F095804D498A6822F003021343B5
:103010008B60FEF717F90646484B9B6803F00C03DC
:103020006268B3EB820F22D0FEF70CF9801B41F2ED
:1030300088339842F0D9032097E74FF41D713E483A
:1030400005F09EFAC5E740F27B213B4805F098FA6F
:10305000CDE73A4A126812F4003FD4D1012084E748
:10306000364A126812F0007FCDD101207DE7314B46
:103070001B6803F00F03AB4209D9EAB22D4B1A705B
:103080001B6803F00F03AB4201D001206DE72368FA
:1030900013F0040F14D0E3685BB1B3F5805F08D080
:1030A000B3F5A05F05D0B3F5C05F02D0B3F5E05F24
:1030B00030D1224A936823F4E053E1680B439360D4
:1030C000236813F0080F15D023695BB1B3F5805F57
:1030D00008D0B3F5A05F05D0B3F5C05F02D0B3F55B
:1030E000E05F1DD1154A936823F46043216943EAE8
:1030F000C1039360FFF7B2FE104B9B68C3F3031349
:103100000F4AD35CD8400F4B18600020FEF750F8F0
:1031100000202AE740F2B921074805F031FAC8E754
:103120004FF43071044805F02BFADBE701207047BB
:1031300001201AE7003C024010F900080038024064
:1031400048F8000814000020014B1868704700BFC1
:103150001400002008B5FFF7F7FF044B9B68C3F38A
:103160008223034AD35CD84008BD00BF0038024028
:1031700058F8000808B5FFF7E7FF044B9B68C3F356
:103180004233034AD35CD84008BD00BF0038024038
:1031900058F80008F8B505460F4616461C463BE0B1
:1031A0002CB1FEF74FF8069BC01AA04234D32A6810
:1031B000536823F0E00353606B68B3F5827F0BD054
:1031C000AB6AB3F5005F14D0012385F851300023BA
:1031D00085F85030032027E0AB68B3F5004F02D0EC
:1031E000B3F5806FECD12A68136823F040031360B5
:1031F000E6E72A68136823F400531B041B0C1360D2
:103200002A68136843F400531360DDE70123B342D7
:1032100009D0B4F1FF3FC3D12B689B6837EA0303A1
:10322000F4D00023F3E70020F8BD10B582B00446C7
:1032300000920B4600228021FFF7ACFF034610B935
:10324000184602B010BD636D43F02003636503238D
:10325000F6E70000002800F0C88010B504460368B7
:10326000634A934214D0A2F57842934210D002F5FB
:10327000806293420CD002F57842934208D002F566
:10328000E052934204D04FF487715A4805F078F920
:10329000636813B1B3F5827F6BD1A3682BB1B3F52B
:1032A000806F02D0B3F5004F69D1E368B3F5006FCA
:1032B00001D0002B69D1A369B3F5007F03D013B10E
:1032C000B3F5802F67D1E3696BB1082B0BD0102BBE
:1032D00009D0182B07D0202B05D0282B03D0302B5A
:1032E00001D0382B5DD1236A0BB1802B5FD1636A8B
:1032F0000BB1102B61D1636A33B923690BB1022B77
:1033000061D16369012B64D80023A36294F8513022
:10331000002B64D0022384F851302268136823F014
:10332000400313606368A2681343E2681343226991
:10333000134362691343A26902F400721343E26902
:103340001343226A1343A16A22680B431360638B01
:1033500003F00403616A22680B4353602268D36957
:1033600023F40063D36100206065012384F85130A9
:1033700010BD40F20F111F4805F002F98DE74FF420
:1033800088711C4805F0FCF88FE740F211111948CC
:1033900005F0F6F88FE74FF48971164805F0F0F85C
:1033A00091E740F21311134805F0EAF89BE74FF458
:1033B0008A71104805F0E4F899E740F215110D48BC
:1033C00005F0DEF897E74FF48C710A4805F0D8F85D
:1033D00097E740F21911074805F0D2F894E784F80E
:1033E0005030204605F018FB94E70120704700BFDD
:1033F0000030014048F900082DE9F04385B004464B
:103400000F46164699460C9D8368F3B994F85030E0
:10341000012B00F01381012384F85030FDF712FFD7
:10342000804694F85130DBB26268012B1BD0B2F5B4
:10343000827F10D00223012284F85120002284F8D8
:103440005020184605B0BDE8F08340F23A317C4880
:1034500005F096F8DAE7A268002A40F0E780042B2E
:1034600001D00223E7E7002F00F0E280002E00F0F9
:10347000E180B9F1000F00F0DF8094F85130DBB249
:10348000012B2BD000236365A663A4F83E90A4F81B
:103490003C902763A4F83690A4F8349023646364C6
:1034A00023681A6812F0400F03D11A6842F04002F4
:1034B0001A60E368B3F5006F14D063681BB1E38E44
:1034C0009BB2012B07D1236817F8012B1A73E38EE7
:1034D000013B9BB2E3864FF0010961E0052384F8CC
:1034E0005130CFE763681BB1E38E9BB2012B07D14C
:1034F000236837F8022BDA60E38E013B9BB2E38648
:103500004FF0010913E0E38F9BB26BB123689A6817
:1035100012F0010F08D0DB6826F8023BE38F013B75
:103520009BB2E3874FF00109B5F1FF3F1CD1E38E59
:103530009BB21BB9E38F9BB2002B55D0B9F1000FA2
:10354000E1D0E38E9BB2002BDDD023689A6812F0A5
:10355000020FD8D037F8022BDA60E38E013B9BB222
:10356000E3864FF00009CEE7FDF76CFEA0EB080004
:10357000A842DCD303235EE7E38F9BB26BB12368E1
:103580009A6812F0010F08D0DB683370E38F013BBB
:103590009BB2E38701364FF00109B5F1FF3F1BD124
:1035A000E38E9BB213B9E38F9BB2EBB1B9F1000F7D
:1035B000E2D0E38E9BB2002BDED023689A6812F033
:1035C000020FD9D03A781A73E38E013B9BB2E3869F
:1035D00001374FF00009CFE7FDF734FEA0EB0800FC
:1035E000A842DDD3032326E7CDF800802B46012235
:1035F00002212046FFF7CEFD08B103231BE7424618
:1036000029462046FFF711FE034618B120236365C3
:10361000012310E7A268002A7FF40DAF039222680D
:10362000D168039192680392039A04E7022302E7A8
:10363000012300E70123FEE60123FCE6022300E765
:1036400048F9000810B4036A046A24F00104046213
:10365000846924F0F00444EA021223F00A030B43C5
:10366000826103625DF8044B704710B4036A23F073
:10367000100303628469036A24F4704444EA02324A
:1036800023F0A00343EA0113826103625DF8044B57
:103690007047836823F0700341F00701194381608C
:1036A000704710B4846824F47F4442EA03230B4338
:1036B000234383605DF8044B7047000010B5044657
:1036C0000368184A93421FD0B3F1804F1CD0A2F573
:1036D0007C42934218D002F58062934214D002F5E6
:1036E0008062934210D002F59A3293420CD002F5D8
:1036F0008062934208D002F58062934204D04FF476
:103700009971094804F03CFF022384F8393022689B
:10371000136843F001031360012384F8393000205B
:1037200010BD00BF0000014080F9000810B504463C
:1037300003681D4A93421FD0B3F1804F1CD0A2F5FD
:103740007C42934218D002F58062934214D002F575
:103750008062934210D002F59A3293420CD002F567
:103760008062934208D002F58062934204D04FF405
:10377000A5710E4804F004FF022384F83930236851
:10378000196A41F21112114208D1196A40F24442F9
:10379000114203D11A6822F001021A60012384F851
:1037A0003930002010BD00BF0000014080F9000842
:1037B00010B504460368174A93421FD0B3F1804FF7
:1037C0001CD0A2F57C42934218D002F5806293424D
:1037D00014D002F58062934210D002F59A329342DF
:1037E0000CD002F58062934208D002F580629342C9
:1037F00004D04FF4B171084804F0C2FE2268D368C7
:1038000043F00103D3602268136843F0010313609F
:10381000002010BD0000014080F9000838B590F884
:103820003830012B00F070820D460446012380F8E9
:103830003830022380F839300B68B3F5805F11D03F
:10384000B3F5005F0ED06BB1102B0BD0202B09D03D
:10385000302B07D0402B05D0502B03D0602B01D04C
:10386000702B4AD12268936823F47F4323F07703B7
:1038700093602B68402B00F0BF8144D9702B00F07F
:10388000058100F28F80502B00F06481602B40F0A6
:10389000F6802368AD4A934217D0B3F1804F14D01D
:1038A000A2F57C42934210D002F5806293420CD084
:1038B00002F58062934208D002F59A32934204D016
:1038C00040F6C471A24804F05BFE6B68B3F5004F8C
:1038D00005D023B1022B02D00A2B40F08181EB6886
:1038E0000F2B00F28381EA6869682068FFF7BDFE4C
:1038F00060212068FFF7CDFEC1E040F67771944863
:1039000004F03EFEAEE7102B00F0BC8126D9202B40
:1039100000F0D981302B40F0B28023688B4A93426B
:1039200017D0B3F1804F14D0A2F57C42934210D04F
:1039300002F5806293420CD002F58062934208D077
:1039400002F59A32934204D040F6F271804804F0B6
:1039500017FE30212068FFF79CFE90E0002B40F01E
:103960008E802368794A934217D0B3F1804F14D0E8
:10397000A2F57C42934210D002F5806293420CD0B3
:1039800002F58062934208D002F59A32934204D045
:103990004FF47E616E4804F0F3FD00212068FFF7CC
:1039A00078FE6CE0B3F5805F40D0B3F5005F66D180
:1039B0002368664A934213D0B3F1804F10D0A2F52A
:1039C0007C4293420CD002F58062934208D002F50B
:1039D0008062934204D040F6A4715D4804F0D0FDAB
:1039E0006B68B3F5004F05D023B1022B02D00A2B30
:1039F00040F09980AB684BB1B3F5805F06D0B3F56A
:103A0000005F03D0B3F5405F40F09380EB680F2B6D
:103A100000F29580EB686A68A9682068FFF741FEAC
:103A20002268936843F48043936028E02368474A00
:103A300093421FD0B3F1804F1CD0A2F57C42934239
:103A400018D002F58062934214D002F5806293424E
:103A500010D002F59A3293420CD002F58062934264
:103A600008D002F58062934204D040F68371384852
:103A700004F086FD2268936823F007039360012316
:103A800084F83930002084F8380038BD23682F4A84
:103A9000934213D0B3F1804F10D0A2F57C429342F1
:103AA0000CD002F58062934208D002F58062934206
:103AB00004D040F68C71264804F062FD6B68B3F5C3
:103AC000004F04D01BB1022B01D00A2B19D1AB68D7
:103AD00043B1B3F5805F05D0B3F5005F02D0B3F515
:103AE000405F14D1EB680F2B17D8EB686A68A968A0
:103AF0002068FFF7D6FD2268936843F07703936050
:103B0000BDE740F68E71124804F03AFDDFE740F65B
:103B10008F710F4804F034FDE4E74FF479610C48ED
:103B200004F02EFDE1E740F6A671094804F028FDF7
:103B300060E740F6A771064804F022FD66E740F60C
:103B4000A871034804F01CFD64E700BF00000140B9
:103B500080F9000823686D4A93421FD0B3F1804F6B
:103B60001CD0A2F57C42934218D002F580629342A9
:103B700014D002F58062934210D002F59A3293423B
:103B80000CD002F58062934208D002F58062934225
:103B900004D040F6B6715E4804F0F2FC6B68B3F5F1
:103BA000004F04D01BB1022B01D00A2B0CD1EB68C3
:103BB0000F2B0FD8EA6869682068FFF743FD502192
:103BC0002068FFF766FD5AE740F6B971504804F0E7
:103BD000D7FCECE740F6BA714D4804F0D1FCE9E7B8
:103BE00040F6C7714A4804F0CBFC78E640F6C8714D
:103BF000474804F0C5FC76E62368444A93421FD048
:103C0000B3F1804F1CD0A2F57C42934218D002F54C
:103C10008062934214D002F58062934210D002F584
:103C20009A3293420CD002F58062934208D002F59A
:103C30008062934204D040F6D271354804F0A0FC73
:103C40006B68B3F5004F04D01BB1022B01D00A2BD7
:103C50000CD1EB680F2B0FD8EA6869682068FFF772
:103C6000F1FC40212068FFF714FD08E740F6D5710C
:103C7000274804F085FCECE740F6D671244804F0B0
:103C80007FFCE9E72368214A934217D0B3F1804FC4
:103C900014D0A2F57C42934210D002F58062934288
:103CA0000CD002F58062934208D002F59A3293421A
:103CB00004D040F6E671164804F062FC102120683A
:103CC000FFF7E7FCDBE62368104A934217D0B3F115
:103CD000804F14D0A2F57C42934210D002F580624E
:103CE00093420CD002F58062934208D002F59A32DA
:103CF000934204D040F6EC71054804F041FC2021C9
:103D00002068FFF7C6FCBAE60220BEE600000140CC
:103D100080F90008704770477047704710B5044637
:103D200003681A6912F0020F11D0DA6812F0020F5C
:103D30000DD06FF002021A610123037603689B69BC
:103D400013F0030F70D0FFF7E6FF002323762368FC
:103D50001A6912F0040F12D0DA6812F0040F0ED0B4
:103D60006FF004021A610223237623689B6913F41F
:103D7000407F5FD02046FFF7CEFF002323762368E5
:103D80001A6912F0080F12D0DA6812F0080F0ED07C
:103D90006FF008021A61042323762368DB6913F0AD
:103DA000030F4ED02046FFF7B6FF0023237623688B
:103DB0001A6912F0100F12D0DA6812F0100F0ED03C
:103DC0006FF010021A61082323762368DB6913F46D
:103DD000407F3DD02046FFF79EFF002323762368D7
:103DE0001A6912F0010F03D0DA6812F0010F36D110
:103DF00023681A6912F0800F03D0DA6812F0800F7E
:103E000034D123681A6912F0400F03D0DA6812F037
:103E1000400F32D123681A6912F0200F03D0DA68FC
:103E200012F0200F30D110BDFFF774FF2046FFF7CE
:103E300073FF8AE72046FFF76DFF2046FFF76CFF10
:103E40009BE72046FFF766FF2046FFF765FFACE7DC
:103E50002046FFF75FFF2046FFF75EFFBDE76FF0EC
:103E600001021A61204604F025FFC1E76FF08002CD
:103E70001A61204600F01FF9C3E76FF040021A6193
:103E80002046FFF74AFFC5E76FF020021A6120467F
:103E900000F010F9C7E700000368234A90420ED0F3
:103EA000B0F1804F0BD0A2F57C42904207D002F5D2
:103EB0008062904203D002F58062904203D123F0E9
:103EC00070034A681343184A90421AD0B0F1804FE9
:103ED00017D0A2F57C42904213D002F58062904246
:103EE0000FD002F5806290420BD002F59A329042D8
:103EF00007D002F58062904203D002F580629042C2
:103F000003D123F44073CA68134303608B68C36210
:103F10000B688362044B984202D0012343617047CF
:103F20000B690363F9E700BF00000140002855D08A
:103F300010B5044603682A4A93421ED0B3F1804F5D
:103F40001BD0A2F57C42934217D002F580629342C7
:103F500013D002F5806293420FD002F59A32934259
:103F60000BD002F58062934207D002F58062934243
:103F700003D0D7211B4804F003FBA3683BB1102BEF
:103F800005D0202B03D0402B01D0602B16D1236904
:103F90002BB1B3F5807F02D0B3F5007F13D194F835
:103FA0003930ABB1022384F83930211D2068FFF786
:103FB00073FF012384F83930002010BDD82109484F
:103FC00004F0DEFAE3E7D921064804F0D9FAE6E77F
:103FD00084F83830204604F033FEE3E701207047D0
:103FE0000000014080F9000838B504460D4603681A
:103FF0002E4A934213D0B3F1804F10D0A2F57C42E9
:1040000093420CD002F58062934208D002F58062A0
:10401000934204D040F24A61254804F0B1FA2B687B
:104020006BB1102B0BD0202B09D0302B07D0402B9D
:1040300005D0502B03D0602B01D0702B27D16B689B
:10404000802B00D04BBB94F83830012B2BD00122B1
:1040500084F83820022384F8393021684B6823F033
:1040600070034B6021684B68286803434B602168EC
:104070008B6823F080038B6021688B68686803433A
:104080008B6084F83920002084F8380038BD40F275
:104090004B61074804F074FAD1E740F24C610448E0
:1040A00004F06EFACFE70220F0E700BF0000014005
:1040B000B8F90008704770470268D36823F490731A
:1040C000D3600268536923F001035361202380F811
:1040D0003A30704790F83930DBB2212B2AD183680F
:1040E000B3F5805F16D0036A5A1C02621A7803681F
:1040F0005A60C38C013B9BB2C384EBB90268D3689E
:1041000023F08003D3600268D36843F04003D36098
:1041100000207047036A1B880268C3F308035360DA
:1041200003691BB9036A02330362E2E7036A0133DE
:104130000362DEE702207047002070472DE9F84354
:1041400004464268B44B9A4200F29C80E3681BB17B
:10415000B3F5005F40F09C80236933B1B3F5806F05
:1041600003D0B3F5C06F40F0998063694FF6F372E6
:10417000134200D123B940F68811A84804F000FA90
:1041800021680A6922F44052E36813430B612168F5
:10419000CA6822F4164222F00C02A3682069034385
:1041A00060690343E06903431343CB6021684A69B4
:1041B00022F44072A36913434B61E369B3F5004FE6
:1041C00072D02368964A934200F02E8102F58062F5
:1041D000934200F02981FEF7BDFF00EB800000EB69
:1041E00080006568AD00B0FBF5F58E4FA7FB053587
:1041F0006D092E01FEF7AEFF00EB800000EB8000A2
:104200006568AD00B0FBF5F9FEF7A4FF00EB800098
:1042100000EB80006568AD00B0FBF5F5A7FB053548
:104220006D094FF0640808FB15952D013235A7FB89
:1042300005356D0905F0F0053544FEF78BFF00EB01
:10424000800000EB80006668B600B0FBF6F6FEF773
:1042500081FF00EB800000EB800063689B00B0FBF7
:10426000F3F0A7FB0030400908FB10684FEA08187C
:1042700008F13208A7FB0837C7F3431723682F4418
:104280009F6027E140F68511644804F079F95DE705
:1042900040F68611614804F073F95DE740F6871136
:1042A0005E4804F06DF960E723685D4A93425BD095
:1042B00002F58062934257D0FEF74CFF00EB80007E
:1042C00000EB800065686D00B0FBF5F5554FA7FB6E
:1042D00005356D092E01FEF73DFF00EB800000EB78
:1042E000800065686D00B0FBF5F9FEF733FF00EB69
:1042F000800000EB800065686D00B0FBF5F5A7FB62
:1043000005356D094FF0640808FB1595ED00323551
:10431000A7FB05356D096D0005F4F8753544FEF70A
:1043200019FF00EB800000EB800066687600B0FBB0
:10433000F6F6FEF70FFF00EB800000EB80006368ED
:104340005B00B0FBF3F3A7FB03235B0908FB1368D7
:104350004FEAC80808F13208A7FB0837C7F342172D
:1043600023682F449F60B5E0FEF704FF00EB800058
:1043700000EB800065686D00B0FBF5F5294FA7FBE9
:1043800005356D092E01FEF7F5FE00EB800000EB10
:10439000800065686D00B0FBF5F9FEF7EBFE00EB01
:1043A000800000EB800065686D00B0FBF5F5A7FBB1
:1043B00005356D094FF0640808FB1595ED003235A1
:1043C000A7FB05356D096D0005F4F8753544FEF75A
:1043D000D1FE00EB800000EB800066687600B0FB49
:1043E000F6F6FEF7C7FE00EB800000EB8000636886
:1043F0005B00B0FBF3F3A7FB03235B0908FB136827
:104400004FEAC80808F13208A7FB0837C7F342177C
:1044100023682F449F605DE0A037A000F4F90008F6
:10442000001001401F85EB51FEF7A4FE00EB800059
:1044300000EB80006568AD00B0FBF5F5264FA7FBEB
:1044400005356D092E01FEF795FE00EB800000EBAF
:1044500080006568AD00B0FBF5F9FEF78BFE00EB60
:10446000800000EB80006568AD00B0FBF5F5A7FBB0
:1044700005356D094FF0640808FB15952D0132359F
:10448000A7FB05356D0905F0F0053544FEF772FE12
:1044900000EB800000EB80006668B600B0FBF6F62B
:1044A000FEF768FE00EB800000EB800063689B0075
:1044B000B0FBF3F0A7FB0030400908FB10684FEA9F
:1044C000081808F13208A7FB0837C7F34317236819
:1044D0002F449F60BDE8F8831F85EB512DE9F04123
:1044E00005460F4616469846069C2B681B6837EA19
:1044F00003030CBF01230023B3421DD1B4F1FF3FDE
:10450000F3D02CB1FCF79EFEA0EB0800A042ECD942
:104510002A68D36823F4D073D3602A68536923F0E0
:1045200001035361202385F8393085F83A300023A0
:1045300085F83830032000E00020BDE8F08100005D
:10454000002877D010B5044683690BB303683A4A54
:1045500093420CD0A2F54C42934208D002F550424F
:10456000934204D04FF48071344804F009F8A369F1
:10457000FBB1B3F5807F1CD0B3F5007F19D0B3F544
:10458000407F16D040F201112C4803F0F9FF10E0F3
:104590000368294A93420CD0A2F54C42934208D0BA
:1045A00002F55042934204D040F20511234803F033
:1045B000E7FFA36813B1B3F5805F29D1E36913B1B5
:1045C000B3F5004F2AD194F839306BB3242384F823
:1045D00039302268D36823F40053D3602046FFF7B4
:1045E000ADFD2268136923F4904313612268536977
:1045F00023F02A0353612268D36843F40053D36045
:104600000020E063202384F8393084F83A3010BD6C
:1046100040F20711094803F0B3FFCFE74FF484716C
:10462000064803F0ADFFCEE784F83830204604F0AA
:10463000A5FBCBE70120704700100140F4F900080A
:104640002DE9F04182B01E4690F83930DBB2202BC4
:1046500055D104460D469046002955D0002A55D024
:1046600090F83830012B53D0012380F838300023E4
:10467000C363212380F83930FCF7E4FD0746A4F832
:104680002480A4F8268010E000963B46002280217A
:104690002046FFF723FF00283CD12B882268C3F374
:1046A000080353602369C3B90235E38C9BB2B3B1ED
:1046B000E38C013B9BB2E384A368B3F5805FE3D056
:1046C00000963B46002280212046FFF707FF18BBDB
:1046D0002A7823685A600135E7E70135E5E7009657
:1046E0003B46002240212046FFF7F8FE0346A8B9CA
:1046F000202284F83920002284F8382000E00223A8
:10470000184602B0BDE8F0810123F9E70123F7E77D
:104710000223F5E70323F3E70323F1E70323EFE79E
:104720002DE9F04182B01E4690F83A30DBB2202BE2
:104730005AD104460D469046002959D0002A59D036
:1047400090F83830012B57D0012380F838300023FF
:10475000C363222380F83A30FCF774FD0746A4F8BF
:104760002C80A4F82E801DE000963B4600222021DC
:104770002046FFF7B3FE002840D1236933B92368F0
:104780005B68C3F3080325F8023B0BE023685B6812
:10479000DBB225F8013B05E023685B6803F07F038B
:1047A0002B700135E38D9BB2BBB1E38D013B9BB216
:1047B000E385A368B3F5805FD6D000963B46002220
:1047C00020212046FFF78AFED0B92369002BE3D1D0
:1047D00023685B682B700135E4E7202384F83A30C6
:1047E000002084F8380000E0022002B0BDE8F0812B
:1047F0000120FAE70120F8E70220F6E70320F4E7BA
:104800000320F2E7704708B50168CB6823F0400346
:10481000CB60202380F83930FFF7F4FF002008BD7B
:10482000704708B590F83A30DBB2222B40D183684C
:10483000B3F5805F0ED0036903BB03685A68836ACF
:10484000591C81621A70C38D013B9BB2C385F3B1C1
:1048500000202EE0826A036943B903685B68C3F3F2
:1048600008031380836A02338362ECE703685B68A2
:10487000DBB21380836A01338362E4E703685B6819
:10488000826A511C816203F07F031370DBE70268C8
:10489000D36823F49073D3600268536923F0010353
:1048A0005361202380F83A30FFF7BAFF002000E080
:1048B000022008BD7047000010B504460268136866
:1048C000D168526913F00F0005D113F0200F02D008
:1048D00011F0200F53D1002867D012F0010202D14D
:1048E00011F4907F61D013F0010F06D011F4807F96
:1048F00003D0E06B40F00100E06313F0040F04D03C
:104900001AB1E06B40F00200E06313F0020F04D034
:104910001AB1E06B40F00400E06313F0080F04D01C
:104920001AB1E26B42F00802E263E26B002A48D05F
:1049300013F0200F02D011F0200F24D123685B69FF
:1049400003F04003E26B12F0080F00D13BB32046A6
:10495000FFF7B2FB23685A6912F0400F1BD05A6967
:1049600022F040025A61636B8BB11A4A1A65606B80
:10497000FCF735FD28B3606B036D984721E02046B6
:10498000FFF74FFF1DE02046FFF74BFFD6E720461D
:10499000FFF790FF15E02046FFF78CFF11E020465F
:1049A000FFF788FF0023E3630BE013F0800F02D0D2
:1049B00011F0800F06D113F0400F02D011F0400F1C
:1049C00004D110BD2046FFF785FBFAE72046FFF72C
:1049D0001AFFF6E7D949000808B5806B0023C385A4
:1049E000C384FFF767FF08BD08B5044B03EB8002E3
:1049F000526852680344187A904708BD300C002072
:104A000008B5084B1B5C53B9064B01221A5403EB43
:104A10008002526812681844007A904708BD00204E
:104A2000FCE700BF300C002038B5044C04EB8005D7
:104A30006D68AD680444207AA84738BD300C00206A
:104A400038B5044C04EB80056D68ED680444207AA9
:104A5000A84738BD300C002010B5044B03EB800490
:104A6000646824690344187AA04710BD300C002004
:104A70004278007840EA02207047C278837843EA9F
:104A80000222437843EA0223007840EA0320704779
:104A90000170090A417070470170C1F30723437028
:104AA000C1F307438370090EC170704713462AB1E2
:104AB0000A78027001300131013BF9D17047017071
:104AC0000130013AFBD1704730B4451C03780878B7
:104AD0001B1A013A04D04C1C28462146002BF4D066
:104AE000184630BC704700E0013003780BB18B42B0
:104AF000FAD118467047000030B400252B4601E07B
:104B000001250133012B15D81A01174CA258002A90
:104B1000F6D00468A242F4D1134A02EB031254689F
:104B200082689442EDD1104A02EB03129468426904
:104B30009442E6D1022B0AD0A1B90B4A02EB03132F
:104B40009B89B3F5807F07D0002030BC70472DB91A
:104B5000022905D10020F8E71020F6E70020F4E74D
:104B60001220F2E71020F0E7080A0020002000E001
:104B70000130012804D80301034AD358002BF7D190
:104B8000023818BF01207047080A002070B40023C3
:104B900000E00133012B13D81A01244CA4580268F9
:104BA0009442F6D1214A02EB03125468826894427F
:104BB000EFD11E4A02EB0312946842699442E8D195
:104BC000022B29D021B1194A02EB0312928952BB60
:104BD00021BB164A02EB03129189013189B2134AB3
:104BE00002EB03129181581C70BC70470133012BFA
:104BF00004D81A010D4CA258002AF7D1022B10D06C
:104C000006680A4D1C012A192E51846854604069B7
:104C1000906000209081D5E70023E8E74FF4807191
:104C2000DDE70020E0E70020DEE700BF080A002003
:104C30000138012815D80D4B03EB00139B89B3F500
:104C4000807F03D01BB1013B9BB200E00023074AE9
:104C500002EB0012938133B903010020034AD050C4
:104C60007047022070470020704700BF080A0020EC
:104C7000002303E05DF8044B70470133012B11D88A
:104C80001A0109498A588242F7D110B41A01002446
:104C90008C500133012BEDD81A0103498A58824206
:104CA000F7D1F3E7704700BF080A00200239C36953
:104CB000023B8B4204D94389006B01FB0300704720
:104CC0000020704710B40468C26A0432A389B1FBA3
:104CD000F3F16389B1FBF3F1106830B1814202D383
:104CE000091A0832F8E7506808445DF8044B704729
:104CF00070B506460D4601F11A00FFF7B9FE33788C
:104D0000032B00D070BD044605F11400FFF7B0FE80
:104D100044EA0040F6E770B506460C46154691B2E7
:104D200004F11A00FFF7B4FE3378032B00D070BDF6
:104D3000290C04F11400FFF7ABFEF8E72DE9F84366
:104D400080460F4691464B730F23CB7200240C73A1
:104D5000214607F11A00FFF79BFE09F1FF3606EB2B
:104D6000460306EB8306254602E001340C2C11D8DD
:104D70004FF6FF739D4202D038F8165001360C4BA7
:104D8000185D29463844FFF783FE002DEDD14FF61C
:104D9000FF75EAE74FF6FF739D4202D038F81630F0
:104DA0000BB949F0400987F80090BDE8F88300BFCF
:104DB000E8F3000870B582B0054616461C460B2283
:104DC000FFF774FE052C11D807221DE001320F2ACF
:104DD0000CD803F0010101EB44045B0814F4803F9C
:104DE000F4D084F4883484F02104EFE73388002B76
:104DF000EAD002360022EAE7531E02A8024402F873
:104E0000081C240909D01A4604F00F0303F13001ED
:104E10003929F1D903F13701EEE77E2102461A4420
:104E200002F8081C00E001349C4209D22A5D202AC5
:104E3000F9D105E02021621C2955072A08D814461B
:104E4000072BF7D802AA1A4412F8081C0133F2E71C
:104E500002B070BD01460B220020C30143EA50039B
:104E6000087850FA83F3D8B20131013AF5D170478E
:104E7000016809B10A4603E04FF0FF3308E0013250
:104E800013781F2B01D93A2BF9D13A2B02D00023EA
:104E90001846704710B44C1C0B78303B092B08D8CF
:104EA000A24209D15BB90132026018465DF8044B99
:104EB00070474FF0FF33F8E74FF0FF33F5E74FF05F
:104EC000FF33F2E738B50D4640B1044603682BB115
:104ED0001A781AB1D9888288914203D000232B60B6
:104EE000092038BD5878FFF77FFD10F0010FF5D18C
:104EF00023682B600020F4E7F8B5C3780BB90020D5
:104F0000F8BD0446456B00F1380701232A463946AF
:104F10004078FFF795FDA8B90023E370A36AEB1A68
:104F2000226A934210D2A678012E09D9236A1D4421
:104F300001232A4639466078FFF782FD013EF3E7F8
:104F40000020DDE70120DBE70020D9E770B5436BE7
:104F50008B4212D004460D46FFF7CEFF064668B9D5
:104F600001232A4604F138016078FFF75DFD10B196
:104F700001264FF0FF35656300E00026304670BD26
:104F800010B504460023C3704FF0FF334363FFF7AF
:104F9000DDFF18BB04F23620FFF76AFD4AF6552301
:104FA00098421DD194F83830E92B05D0A36B03F05B
:104FB000FF130F4A934215D104F16E00FFF75DFD18
:104FC00020F07F400B4B98420ED004F18A00FFF78F
:104FD00054FD094B984209D1002002E0042000E072
:104FE000032010BD0220FCE70020FAE70220F8E7CA
:104FF000EB00900046415400464154332DE9F04FF8
:1050000087B00F46164600230B60FFF731FF051EE1
:10501000C0F26A81C94B03EB85031C6A002C00F0C7
:1050200067813C6006F0FE06237873B16078FFF775
:10503000DBFC10F0010F08D1002E00F05B8110F0B6
:10504000040F40F0598100204FE100232370E8B2A3
:105050006070FFF7D5FC10F0010F40F04F811EB1DA
:1050600010F0040F40F04C8104F10C020221607832
:10507000FFF7F2FC002840F04581A289A2F50073F9
:105080009BB2B3F5606F00F23F81531E1A4201D00C
:1050900001202AE100212046FFF772FF022800F0DC
:1050A000A0800025042800F03181012800F2308121
:1050B00004F14300FFF7DCFCA789B84240F02A81E5
:1050C00004F14E00FFF7D4FC804620B904F15C00E7
:1050D000FFF7D3FC8046C4F8208094F84860A6709F
:1050E000731EDBB2012B00F2178108FB06F694F861
:1050F0004590A4F80A90B9F1000F00F00F8109F172
:10510000FF3319EA030F40F00B8104F14900FFF768
:10511000AFFC824620814FEA571BB0FBFBF30BFB31
:1051200013039BB2002B40F0FD8004F14B00FFF70E
:105130009FFC019020B904F15800FFF79EFC0190FC
:1051400004F14600FFF794FC0146002800F0EC80D3
:105150008219BAFBFBFB5A44019B9342C0F0E680E4
:105160009B1AB3FBF9F9B9F1000F00F0E1804FF69B
:10517000F57399454DD94FF0030B40F6F5739945FA
:1051800001D84FF0010B09F10209C4F81C906562C7
:105190004B19A3622A442263BBF1030F3CD0BAF13E
:1051A000000F00F0D1803344E362BBF1020F6BD1FA
:1051B0004FEA490942E0002006AB03EB850343F8C0
:1051C000100C0135032D0ED804F138002B0103F526
:1051D000DF7318440379002BEDD00830FFF74DFC46
:1051E000EAE70025EEE700260AE029462046FFF719
:1051F000C7FE01287FF656AF0136032E3FF652AFA9
:1052000006AB03EB860353F8105C002DEDD10320B1
:10521000F2E74FF0020BB0E704F16200FFF728FC61
:10522000002840F08780BAF1000F40F0858004F13B
:105230006400FFF722FCE0624FEA8909B94409F1F2
:10524000FF33B3FBF7F7474500F280804FF0FF33A1
:10525000A361636180232371BBF1030F05D104F1C6
:105260006800FFF705FC012815D084F800B0334A28
:10527000938C01339BB29384E380283222612046D1
:10528000FFF7F6FC002030E009EB490309F00109C3
:1052900009EB5309D2E7691C2046FFF757FE0028A7
:1052A000E3D10023237104F23620FFF7E1FB4AF635
:1052B00055239842D9D104F13800FFF7DEFB204B8B
:1052C0009842D2D104F50770FFF7D7FB1D4B9842E7
:1052D000CBD104F50870FFF7D0FBA06104F509708D
:1052E000FFF7CBFB6061C0E70B2007B0BDE8F08F94
:1052F0000C20FAE70020F8E70A20F6E70320F4E79D
:105300000A20F2E70120F0E70120EEE70120ECE7B8
:105310000D20EAE70D20E8E70D20E6E70D20E4E7A1
:105320000D20E2E70D20E0E70D20DEE70D20DCE7B1
:105330000D20DAE70D20D8E70D20D6E7080A002077
:1053400052526141727241610D20CEE70D20CCE7CF
:105350002DE9F047012940F29280C3698B4240F267
:10536000908017460D4604460378022B4DD0032B40
:1053700064D0012B01D0022684E001EB5108816A40
:105380008389B8FBF3F31944FFF7E0FD06460028D4
:1053900078D104F1380908F1010AA289B8FBF2F3C7
:1053A00002FB138815F0010524D019F9083003F029
:1053B0000F033A0102F47F621343DBB209F80830AD
:1053C0000123E370A16AA389BAFBF3F319442046D1
:1053D000FFF7BCFD0646002854D1A289BAFBF2F3C0
:1053E00002FB13AA45B1C7F3071209F80A200123EB
:1053F000E37047E0FBB2E1E719F90A2022F00F025F
:10540000C7F303273A43D2B2EFE7816A83895B0887
:10541000B5FBF3F31944FFF799FD064690BB04F181
:1054200038006D00A289B5FBF2F302FB1355B9B247
:105430002844FFF72DFB0123E37023E0816A838971
:105440009B08B5FBF3F31944FFF780FD0646C8B986
:1054500027F0704704F13803A900A289B1FBF2F5E7
:1054600002FB15151D442846FFF707FB00F07041AD
:1054700039432846FFF710FB0123E37002E00226C0
:1054800000E002263046BDE8F087F8B5066801293D
:105490006AD9F3698B4269D90C463378022B35D02F
:1054A000032B49D0012B01D001205EE001EB510517
:1054B000B16AB389B5FBF3F319443046FFF746FDF3
:1054C000002855D16F1CB389B5FBF3F203FB1255CD
:1054D000354495F83850B16AB7FBF3F319443046B8
:1054E000FFF734FD002846D1B289B7FBF2F302FB87
:1054F00013773E4496F8380045EA002014F0010F77
:1055000001D0000931E0C0F30B002EE0B16AB3898D
:105510005B08B4FBF3F319443046FFF717FD68BB93
:1055200006F138006100B289B1FBF2F302FB1311FE
:105530000844FFF79DFA18E0B16AB3899B08B4FBF1
:10554000F3F319443046FFF701FDD0B906F13800F6
:10555000A100B389B1FBF3F403FB14110844FFF776
:105560008CFA20F0704000E00120F8BD0120FCE73B
:105570004FF0FF30F9E74FF0FF30F6E74FF0FF3024
:10558000F3E74FF0FF30F0E72DE9F0410768B1F5A0
:10559000001F43D206460D4611F01F0F41D1716125
:1055A00084681CB93B78022B00D9FC6ACCB93B89D2
:1055B000B3EB551F37D9FB6AF361B461F369002B74
:1055C00039D0BA89B5FBF2F21344F36107F138031D
:1055D000B989B5FBF1F201FB12551D44356200207B
:1055E0001DE07B89B7F80C8008FB03F845450FD315
:1055F00021463046FFF749FF0446B0F1FF3F14D083
:10560000012814D9FB69834213D9A5EB0805EDE7FE
:1056100021463846FFF74AFBF061CEE70220BDE89D
:10562000F0810220FBE70220F9E70120F7E70220E2
:10563000F5E70220F3E70220F1E72DE9F041074604
:105640000668884631B975698DB1F369AB420FD8E8
:1056500001250DE0FFF719FF0346012847D9B0F1F6
:10566000FF3F49D0F269824246D8454600E0012515
:105670002C460CE021463846FFF707FF034670B181
:10568000012839D0B0F1FF3F36D0AC4233D00134DD
:10569000F369A342EED8012D2BD90224EAE74FF09B
:1056A000FF3221463046FFF753FE034610B9B8F1EA
:1056B000000F0ED1A3B97461B269F369023B9A423B
:1056C00001D8013AB261337943F0010333712346C3
:1056D00012E0224641463046FFF73AFE0346E9E72C
:1056E000012B01D0012307E04FF0FF3304E0012339
:1056F00002E0002300E000231846BDE8F081F8B581
:105700000E46056801292ED907461146EB69B342BA
:105710002CD952B14FF0FF322846FFF719FE8446CC
:1057200018B125E02646A24222D931463846FFF775
:10573000ACFE0446F0B101281FD0B0F1FF3F1FD0EE
:10574000002231462846FFF703FE844680B9AB6944
:10575000EA69911E8B42E5D20133AB612B7943F0AC
:1057600001032B71DEE74FF0020C01E04FF0020C59
:105770006046F8BD4FF0000CFAE74FF0020CF7E777
:105780004FF0010CF4E72DE9F04106684569C36963
:10579000002B72D02035B5F5001F70D20F4604469D
:1057A000B189B5FBF1F201FB12523AB90133C36181
:1057B0008169A1B93389B3EB551F0CD9656106F135
:1057C0003803B189B5FBF1F201FB12551D44256286
:1057D0000020BDE8F0810023C3610420F9E7B2890D
:1057E000B5FBF2F27389013B1A42E7D1FFF74DFE98
:1057F0008046012845D9B0F1FF3F44D0F369834288
:1058000033D88FB1A1692046FFF717FF80460028E3
:105810003BD001283BD0B0F1FF3F3AD03046FFF7F4
:105820006BFB28B10120D4E70023E3610420D0E71B
:10583000B289002106F13800FFF741F941463046B0
:10584000FFF734FA7063002773899F420AD201235D
:10585000F3703046FFF750FBE8B90137736B013343
:105860007363F1E7736BDB1B7363C4F81880414605
:105870003046FFF71BFAE061A0E70420A9E7042007
:10588000A7E70220A5E70120A3E70720A1E7022060
:105890009FE701209DE701209BE7F8B504460F46EE
:1058A00006680021FFF770FE0346C0B9002508E036
:1058B0000135BD4213D001212046FFF764FF0346A6
:1058C00068B9E1693046FFF741FB034638B9226AFF
:1058D0001278E52AECD0002AEAD00025EBE7042B69
:1058E00001D01846F8BD0723FBE7000070B5044659
:1058F000FFF702FB054648B92378032B08D00022A6
:1059000011466078FFF7A8F800B10125284670BD60
:105910002379012BF3D104F13806A2890021304606
:10592000FFF7CDF84AF6552104F23620FFF7B0F81C
:105930000E493046FFF7B0F80D4904F50770FFF740
:10594000ABF8A16904F50870FFF7A6F8616904F5E2
:105950000970FFF7A1F8626A0132626301233146E0
:105960006078FFF76DF800232371C8E75252614158
:10597000727241612DE9F04F83B080468A46D1F8BA
:10598000009003681D69002410E0013619F8063004
:105990002F2BFAD05C2BF8D04E44CAF800601F2899
:1059A00021D8042722E025F814703446661C19F823
:1059B00004001F28F0D92F28E8D05C28E6D0FE2C60
:1059C00000F2DF80012100F06FFD0746002800F0A3
:1059D000DA807F28E7D801466D48FFF784F8002871
:1059E000E1D0062084E0002700E0013C44B104F14E
:1059F0000043013B35F81330202BF6D02E2BF4D08A
:105A0000002325F81430002C00F0BF800B22202149
:105A100008F12400FFF753F8002300E0013335F8C4
:105A20001320202AFAD02E2AF8D01BB147F0030702
:105A300000E0013C6CB104F10042013A35F812205B
:105A40002E2AF6D14FF0080B4FF0000ACDF804A033
:105A50000AE0A2464FF0080B0022019204E04C45F8
:105A60000BD047F003074B4603F1010935F81360EB
:105A7000FEB1202EF5D02E2EF1D0DA4510D24C45B5
:105A80000ED07F2E44D8002E50D147F003075F265A
:105A900008EB0A0383F824604B460AF1010AE3E7A6
:105AA000BBF10B0F27D04C4501D047F003074C4505
:105AB00024D298F82430E52B54D0BBF1080F55D0F0
:105AC000019B03F00C020C2A03D003F00303032B09
:105AD00001D147F0020717F0020F06D1019B03F036
:105AE0000303012B47D0042A48D088F82F700020E8
:105AF00003B0BDE8F08F47F00307DAE7019B9B0096
